:100000000C94AE000C94CB000C94CB000C94CB0061
:100010000C94CB000C94CB000C94CB000C94CB0034
:100020000C94CB000C94CB000C94CB000C94CB0024
:100030000C94CB000C94CB000C94CB000C94CB0014
:100040000C94CB000C94CB000C94CB000C94CB0004
:100050000C94CB0068026B026E027102740277028C
:100060007A0200407A10F35A00A0724E180900106C
:10007000A5D4E80000E87648170000E40B5402001D
:1000800000CA9A3B000000E1F50500008096980048
:10009000000040420F000000A08601000000102771
:1000A00000000000E8030000000064000000000001
:1000B0000A00000000000100000000002C76D88833
:1000C000DC674F0823DFC1DFAE59E1B1B796E5E346
:1000D000E453C63AE651997696E8E6C28426EB895F
:1000E0008C9B62ED407C6FFCEFBC9C9F40F2BAA5FC
:1000F0006FA5F490055A2AF75C936B6CF9676DC194
:100100001BFCE0E40D47FEF520E6B500D0ED902E97
:100110000300943577050080841E080000204E0AF5
:10012000000000C80C333333330F986E1283114133
:10013000EF8D2114893BE65516CFFEE6DB18D184FE
:100140004B381BF77C1D901DA4BBE4242032847225
:100150005E228100C9F124ECA1E53D2711241FBED8
:10016000CFE5D4E0DEBFCDBF10E0A0E6B0E0EAE529
:10017000F2E102C005900D92A43EB107D9F720E04C
:10018000A4EEB0E001C01D92AF3EB207E1F70E94BD
:100190004E030C942B090C94000094B321E030E042
:1001A00002C0220F331F8A95E2F72095292324BB32
:1001B000089594B321E030E002C0220F331F8A95E6
:1001C000E2F7292B24BB089595B321E030E002C06B
:1001D000220F331F8A95E2F72095292325BB089526
:1001E0008091E4000E94E4008091E4000E94D90024
:1001F0008FEB93E00197F1F700C000008091E400DD
:100200000E94CD0090EA9A95F1F723B381E090E047
:100210000090E40002C0880F991F0A94E2F782233D
:10022000E7E4F3E03197F1F700C000000895CF93C1
:10023000C82F8091E4000E94E4008091E4000E94B5
:10024000D90082E08A95F1F700C0CC2321F080919B
:10025000E4000E94CD0080EA8A95F1F78091E400E5
:100260000E94CD00CF9108958091E4000E94E400A7
:100270008091E4000E94D90082E08A95F1F700C0E5
:100280008091E4000E94CD0095E29A95F1F700007C
:1002900083B390E00090E40002C0959587950A949E
:1002A000E2F7817098E79A95F1F70895CF93DF937D
:1002B000D8E0C0E00E94340120E8829FC0011124F0
:1002C000C695C82BD150B1F78C2FDF91CF910895EF
:1002D000CF93DF93D82FC8E08D2F81700E94170134
:1002E000D695C150C9F7DF91CF910895DF92EF9273
:1002F000FF920F931F93CF93DF93CDB7DEB729976C
:100300000FB6F894DEBF0FBECDBF8B018093E40023
:100310000E94F0008CEC0E94680184E40E94680155
:100320000E9434018823E1F30E94F0008CEC0E94CB
:1003300068018EEB0E9468010E945601E82E8983B5
:100340000E945601F82E8A830E9456018B830E94D8
:1003500056018C830E9456018D830E9456018E8324
:100360000E9456018F830E94560188870E94560181
:10037000D82E89870E94F000FE013196AE01475FBA
:100380005F4F20E09191292798E03CE8269508F4FA
:1003900023279A95D9F7E417F507A1F7D21222C0BF
:1003A0006F2D70E0762F66276E0D711D072E000CE5
:1003B000880B990B0E94300520E030E040E85DE3B7
:1003C0000E94FD0520E030E040E251E40E94FD057E
:1003D0000E946F040E94F804F8017183608380E03A
:1003E00090E002C08FEF9FEF29960FB6F894DEBF22
:1003F0000FBECDBFDF91CF911F910F91FF90EF9076
:10040000DF90089580E280B9089516BE94EA96BF01
:1004100006B607FEFDCF91B1987F983079F483B985
:1004200084E886BF06B607FEFDCF91B1987F98316C
:1004300039F081E0903429F480E0089581E0089556
:1004400080E0089583B984E886BF06B607FEFDCF35
:1004500091B1987F81E0983209F480E0089584ECAE
:1004600086BF06B607FEFDCF83B1089584E886BF38
:1004700006B607FEFDCF83B1089584E986BF0895CF
:10048000CF9380E30E94050280EF0E94220281E365
:100490000E9405020E943602C82F0E943D02C77FBB
:1004A00081E0C03109F080E0CF910895CF93DF93D0
:1004B000EC0180E30E94050283EC0E942202FE010F
:1004C0003197E730F105C8F4E65DFF4F0C946A06FA
:1004D000D1EB81EE14C0DAEA82ED11C0D3EA83ECED
:1004E0000EC0DCE984EB0BC0D5E985EA08C0DEE884
:1004F00086E905C0D7E887E802C0D8EB80EF0E9404
:10050000220281E30E9405020E943602C82F0E9447
:100510003D0281E0DC1380E0DF91CF910895CF931D
:10052000DF93C82F80E30E94050282ED0E94220221
:100530002C2F30E020953095C90182959295907FBF
:100540009827807F98278C2B0E94220281E30E94AB
:1005500005020E943602D82F0E943D0281E0CD1391
:1005600080E0DF91CF9108951F93CF93DF9380E3D5
:100570000E94050284EB0E94220281E30E94050290
:100580000E942F02C0E0D0E00E942F0280FF05C031
:100590002196C531D105C1F70FC00E943602182F30
:1005A0000E943D02649724F00E94400280E009C04E
:1005B00011FB882780F905C00E9436020E943D0287
:1005C000F3CFDF91CF911F910895CF93DF93C82F81
:1005D00080E30E94050285EA0E9422028C2F0E947D
:1005E000220281E30E9405020E942F02C0E0D0E0B7
:1005F0000E942F0280FF05C02196C131D105C1F7AD
:100600000CC00E9436020E943D02609724F00E94B6
:10061000400280E007C081E005C00E9436020E94CF
:100620003D02F5CFDF91CF910895CF93DF9380E323
:100630000E94050286E90E94220281E30E940502CF
:100640000E942F02C0E0D0E00E942F0280FF05C070
:100650002196C131D105C1F71BC00E9436026097B7
:1006600024F00E94400280E016C080E30E94050250
:1006700081EE0E94220281EE0E94220281E30E940A
:1006800005020E943602C82F0E943D028C2F03C033
:100690000E943602E6CFDF91CF910895CF93DF938A
:1006A000CDB7DEB72C970FB6F894DEBF0FBECDBF27
:1006B0002FEF80E792E0215080409040E1F700C0AA
:1006C000000082EF81BB1C861B860E9452040E94A0
:1006D000020280E690E00E94600486E690E00E94BC
:1006E00060040E944002811105C089E690E00E94EA
:1006F000600408C08FE690E00E94600486E690E007
:100700000E94600481E00E948F02811105C089E689
:1007100090E00E94600408C08AE790E00E946004B4
:1007200086E690E00E94600483E090E00E9456021A
:10073000811109C089E690E00E9460040F2EF4E167
:10074000FF2EF02D09C086E890E00E94600486E646
:1007500090E00E946004F2CF1F2DBE01655F7F4FC5
:1007600080E00E947601019611F41150B1F76B857B
:100770007C85072E000C880B990B0E94300520E029
:1007800030E040E251E40E9486048E010B5F1F4F6F
:1007900021E043E00E94700687E990E00E94600437
:1007A000C8010E94600486E690E00E9460040E94F6
:1007B000B402811104C089E690E00E9460048CECD0
:1007C0000E94E502811104C082EB90E00E94600467
:1007D00084E40E94E502811104C08AEB90E00E944B
:1007E00060048FEF99E628E1815090402040E1F7C6
:1007F00000C000000E94B402811104C089E690E0AC
:100800000E9460048CEC0E94E502811104C082EC1D
:1008100090E00E9460048EEB0E94E502811104C00A
:100820008AEC90E00E9460040E941503082F0E9449
:100830005C040E941503182F0E945C04612F70E075
:10084000762F6627600F711D072E000C880B990B01
:100850000E94300520E030E040E25FE30E94FD05A9
:100860000E946F040E94FF04DC01CB014AE0BE013C
:100870006F5F7F4F0E94900682ED90E00E946004BF
:10088000CE0101960E94600486E690E00E9460041A
:100890008FEF9DE329E4815090402040E1F700C0B4
:1008A00000005ACF10BC83E389B91BB81AB886E898
:1008B00080BD88E98AB908955D9BFECF8CB9089503
:1008C000CF93DF93EC018881882331F021960E9439
:1008D0005C0489918111FBCFDF91CF9108950E9433
:1008E000DE0590F09F3748F4911116F40C94F7054B
:1008F00060E070E080E89FE3089526F01B16611D1C
:10090000711D811D0C9471050C948C050E949A0434
:100910000C94AB050E94A40558F00E949D0540F080
:1009200029F45F3F29F00C946B0551110C94F705E5
:100930000C949A050E94BC0568F39923B1F35523E2
:1009400091F3951B550BBB27AA27621773078407E2
:1009500038F09F5F5F4F220F331F441FAA1FA9F378
:1009600035D00E2E3AF0E0E832D091505040E69566
:10097000001CCAF72BD0FE2F29D0660F771F881FC7
:10098000BB1F261737074807AB07B0E809F0BB0BBA
:10099000802DBF01FF2793585F4F3AF09E3F5105CE
:1009A00078F00C946B050C94F7055F3FE4F3983EE8
:1009B000D4F3869577956795B795F7959F5FC9F7B7
:1009C000880F911D9695879597F90895E1E0660F38
:1009D000771F881FBB1F621773078407BA0720F0B1
:1009E000621B730B840BBA0BEE1F88F7E09508951A
:1009F0000E94FF046894B1110C94F70508950E94B9
:100A0000C40588F09F5798F0B92F9927B751B0F0D7
:100A1000E1F0660F771F881F991F1AF0BA95C9F782
:100A200014C0B13091F00E94F605B1E008950C9425
:100A3000F605672F782F8827B85F39F0B93FCCF3D8
:100A4000869577956795B395D9F73EF490958095FF
:100A5000709561957F4F8F4F9F4F0895E89409C01F
:100A600097FB3EF490958095709561957F4F8F4FE1
:100A70009F4F9923A9F0F92F96E9BB279395F695F7
:100A8000879577956795B795F111F8CFFAF4BB0F75
:100A900011F460FF1BC06F5F7F4F8F4F9F4F16C0D9
:100AA000882311F096E911C0772321F09EE8872F63
:100AB000762F05C0662371F096E8862F70E060E01F
:100AC0002AF09A95660F771F881FDAF7880F969598
:100AD000879597F9089597F99F6780E870E060E03F
:100AE0000895882371F4772321F09850872B762F6F
:100AF00007C0662311F499270DC09051862B70E032
:100B000060E02AF09A95660F771F881FDAF7880F42
:100B10009695879597F908959F3F31F0915020F46D
:100B2000879577956795B795880F911D96958795C9
:100B300097F908959FEF80EC089500240A94161603
:100B4000170618060906089500240A9412161306BB
:100B5000140605060895092E0394000C11F4882349
:100B600052F0BB0F40F4BF2B11F460FF04C06F5F65
:100B70007F4F8F4F9F4F089557FD9058440F551F3B
:100B800059F05F3F71F04795880F97FB991F61F00F
:100B90009F3F79F087950895121613061406551F86
:100BA000F2CF4695F1DF08C0161617061806991FF2
:100BB000F1CF869571056105089408950E94C405DA
:100BC000A0F0BEE7B91788F4BB279F3860F416166B
:100BD000B11D672F782F8827985FF7CF8695779577
:100BE0006795B11D93959639C8F30895E894BB278E
:100BF00066277727CB0197F908950E9410060C9479
:100C0000AB050E949D0538F00E94A40520F09523B5
:100C100011F00C946B050C949A0511240C94F705B3
:100C20000E94BC0570F3959FC1F3950F50E0551FCE
:100C3000629FF001729FBB27F00DB11D639FAA2731
:100C4000F00DB11DAA1F649F6627B00DA11D661F80
:100C5000829F2227B00DA11D621F739FB00DA11DA1
:100C6000621F839FA00D611D221F749F3327A00D5B
:100C7000611D231F849F600D211D822F762F6A2FF7
:100C800011249F5750409AF0F1F088234AF0EE0F5C
:100C9000FF1FBB1F661F771F881F91505040A9F789
:100CA0009E3F510580F00C946B050C94F7055F3F57
:100CB000E4F3983ED4F3869577956795B795F795C5
:100CC000E7959F5FC1F7FE2B880F911D969587953D
:100CD00097F90895EE0FFF1F0590F491E02D099408
:100CE000EF920F931F93CF93DF93E80147FD02C06C
:100CF00034E001C034E1E42F440FFF0BF7FF03C0E1
:100D0000F195E195F109E32E022F2E2FAE010E94FD
:100D1000B506CE01DF91CF911F910F91EF9008950D
:100D2000BB274A3031F4992322F4BDE29095819596
:100D30009F4F0C949C06BB27FB015527AA27880FC1
:100D4000991FAA1FA41710F0A41B83955051B9F73F
:100D5000A05DAA3308F0A95DA193009779F7B111BE
:100D6000B1931192CB010C941B094F925F926F9239
:100D70007F929F92AF92BF92CF92DF92EF92FF92BB
:100D80000F931F93CF93DF93CDB7DEB729970FB69D
:100D9000F894DEBF0FBECDBF6A01122FB02E2BE339
:100DA000201720F0FF24F394F00E02C0BCE3FB2ECA
:100DB0000F2D27E0AE014F5F5F4F0E944308AC014B
:100DC0008981982F9970913031F0E1FC06C0E0FEE6
:100DD00006C090E205C09DE203C09BE201C090E026
:100DE000EE2DE07183FF3CC0911102C083E001C091
:100DF00084E0811718F4212F281B01C020E0E111A5
:100E00000BC0F601822F30E2882319F03193815014
:100E1000FBCFC20ED11C20E0992329F0D6019C9370
:100E2000F60131966F01C6010396E2FE0AC03EE468
:100E3000D6013C9341E411964C93119712963C9342
:100E400006C03EE6F601308341E641833283FC0171
:100E5000322F40E2332309F442C041933150FACF9C
:100E600082FF44C0911102C083E001C084E0811779
:100E700018F4212F281B01C020E0E1110BC0F6015E
:100E8000822F30E2882319F031938150FBCFC20EBC
:100E9000D11C20E0992329F0D6019C93F6013196CC
:100EA0006F01C6010396E2FE0BC039E4D6013C9304
:100EB0003EE411963C93119736E412963C9307C09A
:100EC00039E6F60130833EE6318336E63283FC01B3
:100ED000322F40E2332319F041933150FBCFFC0114
:100EE000E20FF11D10828EEF9FEFB7C0F1E091117C
:100EF00001C0F0E06F2F70E01416150624F49A017B
:100F00002F5F3F4F02C021E030E0260F371FBB208C
:100F100029F06B2D70E06F5F7F4F02C060E070E0E2
:100F2000260F371F612F70E0261737071CF4121B9E
:100F3000212F01C020E03E2D387159F4D601322F07
:100F400060E2332319F06D933150FBCFC20ED11CF8
:100F500020E0FF2331F0D6019C93B6016F5F7F4FF5
:100F60006B01E1110BC0F601922F30E3992319F0C8
:100F700031939150FBCFC20ED11C20E09F2D940FD6
:100F80003A81782F7071A72E84FF03C0313309F4A2
:100F90009150191624F4993018F098E001C091E0AE
:100FA000E42F852F57FF02C0E0E080E06E2F782FFE
:100FB000E0E0F0E0AEE29A2E3A01691A71082A01E7
:100FC000461A570A0B2D10E01195019511096F3F34
:100FD0008FEF780729F4D6019C92C60101966C0127
:100FE0004617570784F0661677066CF47F01E40C09
:100FF000F51CA1E0B0E0AC0FBD1FEA0EFB1ED7014F
:101000001196BC9002C090E3B92E615071093196DF
:10101000C60101967C016017710724F0D601BC92CD
:101020006C01D5CF6417750741F4363320F435339E
:1010300021F4A11002C081E3B82EF601B082F701BD
:10104000822F90E2882319F091938150FBCFF70112
:10105000E20FF11D108280E090E029960FB6F8941F
:10106000DEBF0FBECDBFDF91CF911F910F91FF90DB
:10107000EF90DF90CF90BF90AF909F907F906F9058
:101080005F904F900895283008F027E03327DA0169
:10109000990F311D87FD916000966105710539F446
:1010A00032602E5F3D9330E32A95E1F708959F3F2C
:1010B00030F080387105610509F03C5F3C5F3D937D
:1010C000913008F08068911DDF93CF931F930F93A9
:1010D000FF92EF92192F987F9695E92F9695969506
:1010E000E90FFF27E454FF4F99273327EE24FF240D
:1010F000A701E70105900894079428F4360FE71E2E
:10110000F81E491F511D660F771F881F991F0694EF
:10111000A1F70590079428F4E70EF81E491F561F03
:10112000C11D770F881F991F661F0694A1F70590B0
:10113000079428F4F80E491F561FC71FD11D880FAA
:10114000991F661F771F0694A1F70590079420F456
:10115000490F561FC71FD81F990F661F771F881F7B
:101160000694A9F784911095177041F0D695C7950C
:1011700057954795F794E7941A95C1F7E2E6F0E0A2
:1011800068941590159135916591959105907FE240
:101190007395E118F10A430B560BC90BD009C0F740
:1011A000E10CF11E431F561FC91FD01D7EF4703382
:1011B00011F48A95E6CFE894015030F0080F0AF454
:1011C0000027021708F4202F2395022F7A3328F0E6
:1011D00079E37D932A95E9F710C07D932A9589F6E6
:1011E000069497956795379517951794E118F10A26
:1011F000430B560BC90BD00998F023957E9173953C
:101200007A3308F070E37C932013B8F77E91706115
:101210007D9330F0839571E37D9370E32A95E1F738
:101220001124EF90FF900F911F91CF91DF9199279B
:1012300087FD90950895DC01FC01672F719177235C
:10124000E1F7329704C07C916D9370836291AE1781
:0A125000BF07C8F30895F894FFCF1C
:10125A005374617274000D0A004572726F72005203
:10126A006573657420446F6E6500436F6E666967C7
:10127A0020446F6E65004368616E6E656C2053652D
:10128A006C65637465640054656D7065726174752C
:10129A00726520284269742042616E676564293A42
:1012AA0020004572726F722031004572726F72208F
:1012BA0032004572726F722033004572726F72206B
:1012CA00340054656D706572617475726520697356
:0412DA00203A200096
:00000001FF
